{
  "_format": "hh-sol-artifact-1",
  "contractName": "NGORegistry",
  "sourceName": "contracts/MyContract.sol",
  "abi": [
    {
      "inputs": [],
      "stateMutability": "nonpayable",
      "type": "constructor"
    },
    {
      "anonymous": false,
      "inputs": [
        {
          "indexed": true,
          "internalType": "address",
          "name": "buyer",
          "type": "address"
        },
        {
          "indexed": false,
          "internalType": "uint256",
          "name": "amount",
          "type": "uint256"
        },
        {
          "indexed": false,
          "internalType": "uint256",
          "name": "totalPaid",
          "type": "uint256"
        }
      ],
      "name": "BreadBought",
      "type": "event"
    },
    {
      "anonymous": false,
      "inputs": [
        {
          "indexed": true,
          "internalType": "address",
          "name": "withdrawer",
          "type": "address"
        },
        {
          "indexed": false,
          "internalType": "uint256",
          "name": "amount",
          "type": "uint256"
        },
        {
          "indexed": false,
          "internalType": "uint256",
          "name": "quantity",
          "type": "uint256"
        }
      ],
      "name": "BreadWithdrawn",
      "type": "event"
    },
    {
      "anonymous": false,
      "inputs": [
        {
          "indexed": true,
          "internalType": "address",
          "name": "donor",
          "type": "address"
        },
        {
          "indexed": true,
          "internalType": "uint256",
          "name": "requestId",
          "type": "uint256"
        },
        {
          "indexed": false,
          "internalType": "uint256",
          "name": "amount",
          "type": "uint256"
        }
      ],
      "name": "Donated",
      "type": "event"
    },
    {
      "anonymous": false,
      "inputs": [
        {
          "indexed": true,
          "internalType": "address",
          "name": "ngo",
          "type": "address"
        },
        {
          "indexed": false,
          "internalType": "string",
          "name": "name",
          "type": "string"
        },
        {
          "indexed": false,
          "internalType": "string",
          "name": "phone",
          "type": "string"
        },
        {
          "indexed": false,
          "internalType": "string",
          "name": "location",
          "type": "string"
        },
        {
          "indexed": false,
          "internalType": "string",
          "name": "website",
          "type": "string"
        }
      ],
      "name": "NGOListed",
      "type": "event"
    },
    {
      "anonymous": false,
      "inputs": [
        {
          "indexed": false,
          "internalType": "uint256",
          "name": "id",
          "type": "uint256"
        },
        {
          "indexed": true,
          "internalType": "address",
          "name": "ngo",
          "type": "address"
        },
        {
          "indexed": false,
          "internalType": "string",
          "name": "beneficiary",
          "type": "string"
        },
        {
          "indexed": false,
          "internalType": "string",
          "name": "category",
          "type": "string"
        },
        {
          "indexed": false,
          "internalType": "string",
          "name": "description",
          "type": "string"
        },
        {
          "indexed": false,
          "internalType": "uint256",
          "name": "breadRequired",
          "type": "uint256"
        }
      ],
      "name": "RequestRaised",
      "type": "event"
    },
    {
      "inputs": [],
      "name": "BREAD_PRICE_WEI",
      "outputs": [
        {
          "internalType": "uint256",
          "name": "",
          "type": "uint256"
        }
      ],
      "stateMutability": "view",
      "type": "function"
    },
    {
      "inputs": [
        {
          "internalType": "address",
          "name": "",
          "type": "address"
        }
      ],
      "name": "breadBalances",
      "outputs": [
        {
          "internalType": "uint256",
          "name": "",
          "type": "uint256"
        }
      ],
      "stateMutability": "view",
      "type": "function"
    },
    {
      "inputs": [
        {
          "internalType": "uint256",
          "name": "quantity",
          "type": "uint256"
        }
      ],
      "name": "buyBread",
      "outputs": [],
      "stateMutability": "payable",
      "type": "function"
    },
    {
      "inputs": [
        {
          "internalType": "uint256",
          "name": "_requestId",
          "type": "uint256"
        },
        {
          "internalType": "uint256",
          "name": "_amount",
          "type": "uint256"
        }
      ],
      "name": "donateBread",
      "outputs": [],
      "stateMutability": "nonpayable",
      "type": "function"
    },
    {
      "inputs": [],
      "name": "getAllNGOs",
      "outputs": [
        {
          "components": [
            {
              "internalType": "address",
              "name": "ngoAddress",
              "type": "address"
            },
            {
              "internalType": "string",
              "name": "name",
              "type": "string"
            },
            {
              "internalType": "string",
              "name": "description",
              "type": "string"
            },
            {
              "internalType": "string",
              "name": "phone",
              "type": "string"
            },
            {
              "internalType": "string",
              "name": "location",
              "type": "string"
            },
            {
              "internalType": "string",
              "name": "website",
              "type": "string"
            },
            {
              "internalType": "bool",
              "name": "listed",
              "type": "bool"
            }
          ],
          "internalType": "struct NGORegistry.NGO[]",
          "name": "",
          "type": "tuple[]"
        }
      ],
      "stateMutability": "view",
      "type": "function"
    },
    {
      "inputs": [],
      "name": "getAllRequests",
      "outputs": [
        {
          "components": [
            {
              "internalType": "uint256",
              "name": "id",
              "type": "uint256"
            },
            {
              "internalType": "address",
              "name": "ngo",
              "type": "address"
            },
            {
              "internalType": "string",
              "name": "beneficiary",
              "type": "string"
            },
            {
              "internalType": "string",
              "name": "category",
              "type": "string"
            },
            {
              "internalType": "string",
              "name": "description",
              "type": "string"
            },
            {
              "internalType": "uint256",
              "name": "breadRequired",
              "type": "uint256"
            },
            {
              "internalType": "uint256",
              "name": "breadReceived",
              "type": "uint256"
            },
            {
              "internalType": "bool",
              "name": "fulfilled",
              "type": "bool"
            }
          ],
          "internalType": "struct NGORegistry.Request[]",
          "name": "",
          "type": "tuple[]"
        }
      ],
      "stateMutability": "view",
      "type": "function"
    },
    {
      "inputs": [
        {
          "internalType": "uint256",
          "name": "_id",
          "type": "uint256"
        }
      ],
      "name": "getRequestDetails",
      "outputs": [
        {
          "internalType": "address",
          "name": "ngo",
          "type": "address"
        },
        {
          "internalType": "string",
          "name": "beneficiary",
          "type": "string"
        },
        {
          "internalType": "string",
          "name": "category",
          "type": "string"
        },
        {
          "internalType": "string",
          "name": "description",
          "type": "string"
        },
        {
          "internalType": "uint256",
          "name": "breadRequired",
          "type": "uint256"
        },
        {
          "internalType": "uint256",
          "name": "breadReceived",
          "type": "uint256"
        },
        {
          "internalType": "bool",
          "name": "fulfilled",
          "type": "bool"
        }
      ],
      "stateMutability": "view",
      "type": "function"
    },
    {
      "inputs": [
        {
          "internalType": "address",
          "name": "_ngo",
          "type": "address"
        }
      ],
      "name": "getRequestsByNGO",
      "outputs": [
        {
          "internalType": "uint256[]",
          "name": "",
          "type": "uint256[]"
        }
      ],
      "stateMutability": "view",
      "type": "function"
    },
    {
      "inputs": [
        {
          "internalType": "address",
          "name": "_ngo",
          "type": "address"
        }
      ],
      "name": "isRegistered",
      "outputs": [
        {
          "internalType": "bool",
          "name": "",
          "type": "bool"
        }
      ],
      "stateMutability": "view",
      "type": "function"
    },
    {
      "inputs": [
        {
          "internalType": "string",
          "name": "_name",
          "type": "string"
        },
        {
          "internalType": "string",
          "name": "_description",
          "type": "string"
        },
        {
          "internalType": "string",
          "name": "_phone",
          "type": "string"
        },
        {
          "internalType": "string",
          "name": "_location",
          "type": "string"
        },
        {
          "internalType": "string",
          "name": "_website",
          "type": "string"
        }
      ],
      "name": "listAsNGO",
      "outputs": [],
      "stateMutability": "nonpayable",
      "type": "function"
    },
    {
      "inputs": [],
      "name": "nextRequestId",
      "outputs": [
        {
          "internalType": "uint256",
          "name": "",
          "type": "uint256"
        }
      ],
      "stateMutability": "view",
      "type": "function"
    },
    {
      "inputs": [
        {
          "internalType": "uint256",
          "name": "",
          "type": "uint256"
        }
      ],
      "name": "ngoList",
      "outputs": [
        {
          "internalType": "address",
          "name": "",
          "type": "address"
        }
      ],
      "stateMutability": "view",
      "type": "function"
    },
    {
      "inputs": [
        {
          "internalType": "address",
          "name": "",
          "type": "address"
        },
        {
          "internalType": "uint256",
          "name": "",
          "type": "uint256"
        }
      ],
      "name": "ngoToRequests",
      "outputs": [
        {
          "internalType": "uint256",
          "name": "",
          "type": "uint256"
        }
      ],
      "stateMutability": "view",
      "type": "function"
    },
    {
      "inputs": [
        {
          "internalType": "address",
          "name": "",
          "type": "address"
        }
      ],
      "name": "ngos",
      "outputs": [
        {
          "internalType": "address",
          "name": "ngoAddress",
          "type": "address"
        },
        {
          "internalType": "string",
          "name": "name",
          "type": "string"
        },
        {
          "internalType": "string",
          "name": "description",
          "type": "string"
        },
        {
          "internalType": "string",
          "name": "phone",
          "type": "string"
        },
        {
          "internalType": "string",
          "name": "location",
          "type": "string"
        },
        {
          "internalType": "string",
          "name": "website",
          "type": "string"
        },
        {
          "internalType": "bool",
          "name": "listed",
          "type": "bool"
        }
      ],
      "stateMutability": "view",
      "type": "function"
    },
    {
      "inputs": [],
      "name": "owner",
      "outputs": [
        {
          "internalType": "address",
          "name": "",
          "type": "address"
        }
      ],
      "stateMutability": "view",
      "type": "function"
    },
    {
      "inputs": [
        {
          "internalType": "string",
          "name": "_beneficiary",
          "type": "string"
        },
        {
          "internalType": "string",
          "name": "_category",
          "type": "string"
        },
        {
          "internalType": "string",
          "name": "_description",
          "type": "string"
        },
        {
          "internalType": "uint256",
          "name": "_breadRequired",
          "type": "uint256"
        }
      ],
      "name": "raiseRequest",
      "outputs": [],
      "stateMutability": "nonpayable",
      "type": "function"
    },
    {
      "inputs": [
        {
          "internalType": "uint256",
          "name": "",
          "type": "uint256"
        }
      ],
      "name": "requests",
      "outputs": [
        {
          "internalType": "uint256",
          "name": "id",
          "type": "uint256"
        },
        {
          "internalType": "address",
          "name": "ngo",
          "type": "address"
        },
        {
          "internalType": "string",
          "name": "beneficiary",
          "type": "string"
        },
        {
          "internalType": "string",
          "name": "category",
          "type": "string"
        },
        {
          "internalType": "string",
          "name": "description",
          "type": "string"
        },
        {
          "internalType": "uint256",
          "name": "breadRequired",
          "type": "uint256"
        },
        {
          "internalType": "uint256",
          "name": "breadReceived",
          "type": "uint256"
        },
        {
          "internalType": "bool",
          "name": "fulfilled",
          "type": "bool"
        }
      ],
      "stateMutability": "view",
      "type": "function"
    },
    {
      "inputs": [
        {
          "internalType": "uint256",
          "name": "quantity",
          "type": "uint256"
        }
      ],
      "name": "withdraw",
      "outputs": [],
      "stateMutability": "nonpayable",
      "type": "function"
    }
  ],
  "bytecode": "0x608060405234801561001057600080fd5b5033600260006101000a81548173ffffffffffffffffffffffffffffffffffffffff021916908373ffffffffffffffffffffffffffffffffffffffff160217905550613762806100616000396000f3fe6080604052600436106101095760003560e01c8063b0025ea211610095578063df90548311610064578063df90548314610387578063e2792611146103c4578063e6f7d11e146103ef578063f34d4c6314610432578063fb1a002a1461047557610109565b8063b0025ea2146102c8578063b8c9a79514610305578063c3c5a54714610321578063db52d70a1461035e57610109565b806387b5a2dd116100dc57806387b5a2dd146101cf5780638da5cb5b146101fa578063967f8982146102255780639d32bbf314610262578063a9520a471461028b57610109565b80632e1a7d4d1461010e5780635c5e71f3146101375780636a84a9851461016057806381d12c581461018b575b600080fd5b34801561011a57600080fd5b506101356004803603810190610130919061227c565b6104a0565b005b34801561014357600080fd5b5061015e600480360381019061015991906123ef565b61066d565b005b34801561016c57600080fd5b5061017561091c565b6040516101829190612505565b60405180910390f35b34801561019757600080fd5b506101b260048036038101906101ad919061227c565b610922565b6040516101c69897969594939291906125fb565b60405180910390f35b3480156101db57600080fd5b506101e4610b2f565b6040516101f19190612870565b60405180910390f35b34801561020657600080fd5b5061020f610fa9565b60405161021c9190612892565b60405180910390f35b34801561023157600080fd5b5061024c6004803603810190610247919061227c565b610fcf565b6040516102599190612892565b60405180910390f35b34801561026e57600080fd5b50610289600480360381019061028491906128ad565b61100e565b005b34801561029757600080fd5b506102b260048036038101906102ad9190612919565b6112ea565b6040516102bf9190612505565b60405180910390f35b3480156102d457600080fd5b506102ef60048036038101906102ea9190612959565b61131b565b6040516102fc9190612a44565b60405180910390f35b61031f600480360381019061031a919061227c565b6113b2565b005b34801561032d57600080fd5b5061034860048036038101906103439190612959565b611554565b6040516103559190612a66565b60405180910390f35b34801561036a57600080fd5b5061038560048036038101906103809190612a81565b6115ac565b005b34801561039357600080fd5b506103ae60048036038101906103a99190612959565b611890565b6040516103bb9190612505565b60405180910390f35b3480156103d057600080fd5b506103d96118a8565b6040516103e69190612505565b60405180910390f35b3480156103fb57600080fd5b5061041660048036038101906104119190612959565b6118b3565b6040516104299796959493929190612b3c565b60405180910390f35b34801561043e57600080fd5b506104596004803603810190610454919061227c565b611bca565b60405161046c9796959493929190612bce565b60405180910390f35b34801561048157600080fd5b5061048a611e7a565b6040516104979190612dd2565b60405180910390f35b600081116104e3576040517f08c379a00000000000000000000000000000000000000000000000000000000081526004016104da90612e40565b60405180910390fd5b6000816601eb208c2dc0006104f89190612e8f565b905081600360003373ffffffffffffffffffffffffffffffffffffffff1673ffffffffffffffffffffffffffffffffffffffff16815260200190815260200160002054101561057c576040517f08c379a000000000000000000000000000000000000000000000000000000000815260040161057390612f1d565b60405180910390fd5b81600360003373ffffffffffffffffffffffffffffffffffffffff1673ffffffffffffffffffffffffffffffffffffffff16815260200190815260200160002060008282546105cb9190612f3d565b925050819055503373ffffffffffffffffffffffffffffffffffffffff166108fc829081150290604051600060405180830381858888f19350505050158015610618573d6000803e3d6000fd5b503373ffffffffffffffffffffffffffffffffffffffff167f03571a139cd490d7db8b80860fecf7584487ee66b478eb43b743b69871c4508d8284604051610661929190612f71565b60405180910390a25050565b6000803373ffffffffffffffffffffffffffffffffffffffff1673ffffffffffffffffffffffffffffffffffffffff16815260200190815260200160002060060160009054906101000a900460ff16156106fc576040517f08c379a00000000000000000000000000000000000000000000000000000000081526004016106f390612fe6565b60405180910390fd5b6040518060e001604052803373ffffffffffffffffffffffffffffffffffffffff168152602001868152602001858152602001848152602001838152602001828152602001600115158152506000803373ffffffffffffffffffffffffffffffffffffffff1673ffffffffffffffffffffffffffffffffffffffff16815260200190815260200160002060008201518160000160006101000a81548173ffffffffffffffffffffffffffffffffffffffff021916908373ffffffffffffffffffffffffffffffffffffffff16021790555060208201518160010190816107e29190613212565b5060408201518160020190816107f89190613212565b50606082015181600301908161080e9190613212565b5060808201518160040190816108249190613212565b5060a082015181600501908161083a9190613212565b5060c08201518160060160006101000a81548160ff0219169083151502179055509050506001339080600181540180825580915050600190039060005260206000200160009091909190916101000a81548173ffffffffffffffffffffffffffffffffffffffff021916908373ffffffffffffffffffffffffffffffffffffffff1602179055503373ffffffffffffffffffffffffffffffffffffffff167fee012830d22fddddd9a70b7c5b6055f093643e7a0e771a8f9ce8f8ab6f7048028685858560405161090d94939291906132e4565b60405180910390a25050505050565b60045481565b60056020528060005260406000206000915090508060000154908060010160009054906101000a900473ffffffffffffffffffffffffffffffffffffffff169080600201805461097190613035565b80601f016020809104026020016040519081016040528092919081815260200182805461099d90613035565b80156109ea5780601f106109bf576101008083540402835291602001916109ea565b820191906000526020600020905b8154815290600101906020018083116109cd57829003601f168201915b5050505050908060030180546109ff90613035565b80601f0160208091040260200160405190810160405280929190818152602001828054610a2b90613035565b8015610a785780601f10610a4d57610100808354040283529160200191610a78565b820191906000526020600020905b815481529060010190602001808311610a5b57829003601f168201915b505050505090806004018054610a8d90613035565b80601f0160208091040260200160405190810160405280929190818152602001828054610ab990613035565b8015610b065780601f10610adb57610100808354040283529160200191610b06565b820191906000526020600020905b815481529060010190602001808311610ae957829003601f168201915b5050505050908060050154908060060154908060070160009054906101000a900460ff16905088565b6060600060018054905067ffffffffffffffff811115610b5257610b516122c4565b5b604051908082528060200260200182016040528015610b8b57816020015b610b78612180565b815260200190600190039081610b705790505b50905060005b600180549050811015610fa15760008060018381548110610bb557610bb4613345565b5b9060005260206000200160009054906101000a900473ffffffffffffffffffffffffffffffffffffffff1673ffffffffffffffffffffffffffffffffffffffff1673ffffffffffffffffffffffffffffffffffffffff1681526020019081526020016000206040518060e00160405290816000820160009054906101000a900473ffffffffffffffffffffffffffffffffffffffff1673ffffffffffffffffffffffffffffffffffffffff1673ffffffffffffffffffffffffffffffffffffffff168152602001600182018054610c8b90613035565b80601f0160208091040260200160405190810160405280929190818152602001828054610cb790613035565b8015610d045780601f10610cd957610100808354040283529160200191610d04565b820191906000526020600020905b815481529060010190602001808311610ce757829003601f168201915b50505050508152602001600282018054610d1d90613035565b80601f0160208091040260200160405190810160405280929190818152602001828054610d4990613035565b8015610d965780601f10610d6b57610100808354040283529160200191610d96565b820191906000526020600020905b815481529060010190602001808311610d7957829003601f168201915b50505050508152602001600382018054610daf90613035565b80601f0160208091040260200160405190810160405280929190818152602001828054610ddb90613035565b8015610e285780601f10610dfd57610100808354040283529160200191610e28565b820191906000526020600020905b815481529060010190602001808311610e0b57829003601f168201915b50505050508152602001600482018054610e4190613035565b80601f0160208091040260200160405190810160405280929190818152602001828054610e6d90613035565b8015610eba5780601f10610e8f57610100808354040283529160200191610eba565b820191906000526020600020905b815481529060010190602001808311610e9d57829003601f168201915b50505050508152602001600582018054610ed390613035565b80601f0160208091040260200160405190810160405280929190818152602001828054610eff90613035565b8015610f4c5780601f10610f2157610100808354040283529160200191610f4c565b820191906000526020600020905b815481529060010190602001808311610f2f57829003601f168201915b505050505081526020016006820160009054906101000a900460ff161515151581525050828281518110610f8357610f82613345565b5b60200260200101819052508080610f9990613374565b915050610b91565b508091505090565b600260009054906101000a900473ffffffffffffffffffffffffffffffffffffffff1681565b60018181548110610fdf57600080fd5b906000526020600020016000915054906101000a900473ffffffffffffffffffffffffffffffffffffffff1681565b60008111611051576040517f08c379a000000000000000000000000000000000000000000000000000000000815260040161104890613408565b60405180910390fd5b80600360003373ffffffffffffffffffffffffffffffffffffffff1673ffffffffffffffffffffffffffffffffffffffff1681526020019081526020016000205410156110d3576040517f08c379a00000000000000000000000000000000000000000000000000000000081526004016110ca90613474565b60405180910390fd5b60006005600084815260200190815260200160002090508060070160009054906101000a900460ff161561113c576040517f08c379a0000000000000000000000000000000000000000000000000000000008152600401611133906134e0565b60405180910390fd5b600082905081600501548383600601546111569190613500565b1061118f578160060154826005015461116f9190612f3d565b905060018260070160006101000a81548160ff0219169083151502179055505b80600360003373ffffffffffffffffffffffffffffffffffffffff1673ffffffffffffffffffffffffffffffffffffffff16815260200190815260200160002060008282546111de9190612f3d565b92505081905550808260060160008282546111f99190613500565b9250508190555080600360008460010160009054906101000a900473ffffffffffffffffffffffffffffffffffffffff1673ffffffffffffffffffffffffffffffffffffffff1673ffffffffffffffffffffffffffffffffffffffff16815260200190815260200160002060008282546112739190613500565b925050819055508082600501600082825461128e9190612f3d565b92505081905550833373ffffffffffffffffffffffffffffffffffffffff167f4928895ba6723e8e27b15f32e4c3054a1b6c7f8c03f133558d6fa42b3928d14c836040516112dc9190612505565b60405180910390a350505050565b6006602052816000526040600020818154811061130657600080fd5b90600052602060002001600091509150505481565b6060600660008373ffffffffffffffffffffffffffffffffffffffff1673ffffffffffffffffffffffffffffffffffffffff1681526020019081526020016000208054806020026020016040519081016040528092919081815260200182805480156113a657602002820191906000526020600020905b815481526020019060010190808311611392575b50505050509050919050565b600081116113f5576040517f08c379a00000000000000000000000000000000000000000000000000000000081526004016113ec90612e40565b60405180910390fd5b6000816601eb208c2dc00061140a9190612e8f565b90508034101561144f576040517f08c379a000000000000000000000000000000000000000000000000000000000815260040161144690613580565b60405180910390fd5b81600360003373ffffffffffffffffffffffffffffffffffffffff1673ffffffffffffffffffffffffffffffffffffffff168152602001908152602001600020600082825461149e9190613500565b925050819055503373ffffffffffffffffffffffffffffffffffffffff167f48b926afa4e6464171ebb3e60b3f8a121e97db2d9bd715ada927c7e25a16037683346040516114ed929190612f71565b60405180910390a280341115611550573373ffffffffffffffffffffffffffffffffffffffff166108fc82346115239190612f3d565b9081150290604051600060405180830381858888f1935050505015801561154e573d6000803e3d6000fd5b505b5050565b60008060008373ffffffffffffffffffffffffffffffffffffffff1673ffffffffffffffffffffffffffffffffffffffff16815260200190815260200160002060060160009054906101000a900460ff169050919050565b6000803373ffffffffffffffffffffffffffffffffffffffff1673ffffffffffffffffffffffffffffffffffffffff16815260200190815260200160002060060160009054906101000a900460ff1661163a576040517f08c379a000000000000000000000000000000000000000000000000000000000815260040161163190613612565b60405180910390fd5b6000811161167d576040517f08c379a0000000000000000000000000000000000000000000000000000000008152600401611674906136a4565b60405180910390fd5b60405180610100016040528060045481526020013373ffffffffffffffffffffffffffffffffffffffff16815260200185815260200184815260200183815260200182815260200160008152602001600015158152506005600060045481526020019081526020016000206000820151816000015560208201518160010160006101000a81548173ffffffffffffffffffffffffffffffffffffffff021916908373ffffffffffffffffffffffffffffffffffffffff160217905550604082015181600201908161174e9190613212565b5060608201518160030190816117649190613212565b50608082015181600401908161177a9190613212565b5060a0820151816005015560c0820151816006015560e08201518160070160006101000a81548160ff021916908315150217905550905050600660003373ffffffffffffffffffffffffffffffffffffffff1673ffffffffffffffffffffffffffffffffffffffff16815260200190815260200160002060045490806001815401808255809150506001900390600052602060002001600090919091909150553373ffffffffffffffffffffffffffffffffffffffff167ff3ff0e4ee227c9c49e471e239d267f785dfc44d3bc508fe845796c45664aac566004548686868660405161186a9594939291906136c4565b60405180910390a26004600081548092919061188590613374565b919050555050505050565b60036020528060005260406000206000915090505481565b6601eb208c2dc00081565b60006020528060005260406000206000915090508060000160009054906101000a900473ffffffffffffffffffffffffffffffffffffffff16908060010180546118fc90613035565b80601f016020809104026020016040519081016040528092919081815260200182805461192890613035565b80156119755780601f1061194a57610100808354040283529160200191611975565b820191906000526020600020905b81548152906001019060200180831161195857829003601f168201915b50505050509080600201805461198a90613035565b80601f01602080910402602001604051908101604052809291908181526020018280546119b690613035565b8015611a035780601f106119d857610100808354040283529160200191611a03565b820191906000526020600020905b8154815290600101906020018083116119e657829003601f168201915b505050505090806003018054611a1890613035565b80601f0160208091040260200160405190810160405280929190818152602001828054611a4490613035565b8015611a915780601f10611a6657610100808354040283529160200191611a91565b820191906000526020600020905b815481529060010190602001808311611a7457829003601f168201915b505050505090806004018054611aa690613035565b80601f0160208091040260200160405190810160405280929190818152602001828054611ad290613035565b8015611b1f5780601f10611af457610100808354040283529160200191611b1f565b820191906000526020600020905b815481529060010190602001808311611b0257829003601f168201915b505050505090806005018054611b3490613035565b80601f0160208091040260200160405190810160405280929190818152602001828054611b6090613035565b8015611bad5780601f10611b8257610100808354040283529160200191611bad565b820191906000526020600020905b815481529060010190602001808311611b9057829003601f168201915b5050505050908060060160009054906101000a900460ff16905087565b60006060806060600080600080600560008a815260200190815260200160002060405180610100016040529081600082015481526020016001820160009054906101000a900473ffffffffffffffffffffffffffffffffffffffff1673ffffffffffffffffffffffffffffffffffffffff1673ffffffffffffffffffffffffffffffffffffffff168152602001600282018054611c6690613035565b80601f0160208091040260200160405190810160405280929190818152602001828054611c9290613035565b8015611cdf5780601f10611cb457610100808354040283529160200191611cdf565b820191906000526020600020905b815481529060010190602001808311611cc257829003601f168201915b50505050508152602001600382018054611cf890613035565b80601f0160208091040260200160405190810160405280929190818152602001828054611d2490613035565b8015611d715780601f10611d4657610100808354040283529160200191611d71565b820191906000526020600020905b815481529060010190602001808311611d5457829003601f168201915b50505050508152602001600482018054611d8a90613035565b80601f0160208091040260200160405190810160405280929190818152602001828054611db690613035565b8015611e035780601f10611dd857610100808354040283529160200191611e03565b820191906000526020600020905b815481529060010190602001808311611de657829003601f168201915b5050505050815260200160058201548152602001600682015481526020016007820160009054906101000a900460ff161515151581525050905080602001518160400151826060015183608001518460a001518560c001518660e00151975097509750975097509750975050919395979092949650565b6060600060045467ffffffffffffffff811115611e9a57611e996122c4565b5b604051908082528060200260200182016040528015611ed357816020015b611ec06121d5565b815260200190600190039081611eb85790505b50905060005b600454811015612178576005600082815260200190815260200160002060405180610100016040529081600082015481526020016001820160009054906101000a900473ffffffffffffffffffffffffffffffffffffffff1673ffffffffffffffffffffffffffffffffffffffff1673ffffffffffffffffffffffffffffffffffffffff168152602001600282018054611f7290613035565b80601f0160208091040260200160405190810160405280929190818152602001828054611f9e90613035565b8015611feb5780601f10611fc057610100808354040283529160200191611feb565b820191906000526020600020905b815481529060010190602001808311611fce57829003601f168201915b5050505050815260200160038201805461200490613035565b80601f016020809104026020016040519081016040528092919081815260200182805461203090613035565b801561207d5780601f106120525761010080835404028352916020019161207d565b820191906000526020600020905b81548152906001019060200180831161206057829003601f168201915b5050505050815260200160048201805461209690613035565b80601f01602080910402602001604051908101604052809291908181526020018280546120c290613035565b801561210f5780601f106120e45761010080835404028352916020019161210f565b820191906000526020600020905b8154815290600101906020018083116120f257829003601f168201915b5050505050815260200160058201548152602001600682015481526020016007820160009054906101000a900460ff16151515158152505082828151811061215a57612159613345565b5b6020026020010181905250808061217090613374565b915050611ed9565b508091505090565b6040518060e00160405280600073ffffffffffffffffffffffffffffffffffffffff16815260200160608152602001606081526020016060815260200160608152602001606081526020016000151581525090565b60405180610100016040528060008152602001600073ffffffffffffffffffffffffffffffffffffffff16815260200160608152602001606081526020016060815260200160008152602001600081526020016000151581525090565b6000604051905090565b600080fd5b600080fd5b6000819050919050565b61225981612246565b811461226457600080fd5b50565b60008135905061227681612250565b92915050565b6000602082840312156122925761229161223c565b5b60006122a084828501612267565b91505092915050565b600080fd5b600080fd5b6000601f19601f8301169050919050565b7f4e487b7100000000000000000000000000000000000000000000000000000000600052604160045260246000fd5b6122fc826122b3565b810181811067ffffffffffffffff8211171561231b5761231a6122c4565b5b80604052505050565b600061232e612232565b905061233a82826122f3565b919050565b600067ffffffffffffffff82111561235a576123596122c4565b5b612363826122b3565b9050602081019050919050565b82818337600083830152505050565b600061239261238d8461233f565b612324565b9050828152602081018484840111156123ae576123ad6122ae565b5b6123b9848285612370565b509392505050565b600082601f8301126123d6576123d56122a9565b5b81356123e684826020860161237f565b91505092915050565b600080600080600060a0868803121561240b5761240a61223c565b5b600086013567ffffffffffffffff81111561242957612428612241565b5b612435888289016123c1565b955050602086013567ffffffffffffffff81111561245657612455612241565b5b612462888289016123c1565b945050604086013567ffffffffffffffff81111561248357612482612241565b5b61248f888289016123c1565b935050606086013567ffffffffffffffff8111156124b0576124af612241565b5b6124bc888289016123c1565b925050608086013567ffffffffffffffff8111156124dd576124dc612241565b5b6124e9888289016123c1565b9150509295509295909350565b6124ff81612246565b82525050565b600060208201905061251a60008301846124f6565b92915050565b600073ffffffffffffffffffffffffffffffffffffffff82169050919050565b600061254b82612520565b9050919050565b61255b81612540565b82525050565b600081519050919050565b600082825260208201905092915050565b60005b8381101561259b578082015181840152602081019050612580565b60008484015250505050565b60006125b282612561565b6125bc818561256c565b93506125cc81856020860161257d565b6125d5816122b3565b840191505092915050565b60008115159050919050565b6125f5816125e0565b82525050565b600061010082019050612611600083018b6124f6565b61261e602083018a612552565b818103604083015261263081896125a7565b9050818103606083015261264481886125a7565b9050818103608083015261265881876125a7565b905061266760a08301866124f6565b61267460c08301856124f6565b61268160e08301846125ec565b9998505050505050505050565b600081519050919050565b600082825260208201905092915050565b6000819050602082019050919050565b6126c381612540565b82525050565b600082825260208201905092915050565b60006126e582612561565b6126ef81856126c9565b93506126ff81856020860161257d565b612708816122b3565b840191505092915050565b61271c816125e0565b82525050565b600060e08301600083015161273a60008601826126ba565b506020830151848203602086015261275282826126da565b9150506040830151848203604086015261276c82826126da565b9150506060830151848203606086015261278682826126da565b915050608083015184820360808601526127a082826126da565b91505060a083015184820360a08601526127ba82826126da565b91505060c08301516127cf60c0860182612713565b508091505092915050565b60006127e68383612722565b905092915050565b6000602082019050919050565b60006128068261268e565b6128108185612699565b935083602082028501612822856126aa565b8060005b8581101561285e578484038952815161283f85826127da565b945061284a836127ee565b925060208a01995050600181019050612826565b50829750879550505050505092915050565b6000602082019050818103600083015261288a81846127fb565b905092915050565b60006020820190506128a76000830184612552565b92915050565b600080604083850312156128c4576128c361223c565b5b60006128d285828601612267565b92505060206128e385828601612267565b9150509250929050565b6128f681612540565b811461290157600080fd5b50565b600081359050612913816128ed565b92915050565b600080604083850312156129305761292f61223c565b5b600061293e85828601612904565b925050602061294f85828601612267565b9150509250929050565b60006020828403121561296f5761296e61223c565b5b600061297d84828501612904565b91505092915050565b600081519050919050565b600082825260208201905092915050565b6000819050602082019050919050565b6129bb81612246565b82525050565b60006129cd83836129b2565b60208301905092915050565b6000602082019050919050565b60006129f182612986565b6129fb8185612991565b9350612a06836129a2565b8060005b83811015612a37578151612a1e88826129c1565b9750612a29836129d9565b925050600181019050612a0a565b5085935050505092915050565b60006020820190508181036000830152612a5e81846129e6565b905092915050565b6000602082019050612a7b60008301846125ec565b92915050565b60008060008060808587031215612a9b57612a9a61223c565b5b600085013567ffffffffffffffff811115612ab957612ab8612241565b5b612ac5878288016123c1565b945050602085013567ffffffffffffffff811115612ae657612ae5612241565b5b612af2878288016123c1565b935050604085013567ffffffffffffffff811115612b1357612b12612241565b5b612b1f878288016123c1565b9250506060612b3087828801612267565b91505092959194509250565b600060e082019050612b51600083018a612552565b8181036020830152612b6381896125a7565b90508181036040830152612b7781886125a7565b90508181036060830152612b8b81876125a7565b90508181036080830152612b9f81866125a7565b905081810360a0830152612bb381856125a7565b9050612bc260c08301846125ec565b98975050505050505050565b600060e082019050612be3600083018a612552565b8181036020830152612bf581896125a7565b90508181036040830152612c0981886125a7565b90508181036060830152612c1d81876125a7565b9050612c2c60808301866124f6565b612c3960a08301856124f6565b612c4660c08301846125ec565b98975050505050505050565b600081519050919050565b600082825260208201905092915050565b6000819050602082019050919050565b600061010083016000830151612c9760008601826129b2565b506020830151612caa60208601826126ba565b5060408301518482036040860152612cc282826126da565b91505060608301518482036060860152612cdc82826126da565b91505060808301518482036080860152612cf682826126da565b91505060a0830151612d0b60a08601826129b2565b5060c0830151612d1e60c08601826129b2565b5060e0830151612d3160e0860182612713565b508091505092915050565b6000612d488383612c7e565b905092915050565b6000602082019050919050565b6000612d6882612c52565b612d728185612c5d565b935083602082028501612d8485612c6e565b8060005b85811015612dc05784840389528151612da18582612d3c565b9450612dac83612d50565b925060208a01995050600181019050612d88565b50829750879550505050505092915050565b60006020820190508181036000830152612dec8184612d5d565b905092915050565b7f5175616e74697479206d7573742062652067726561746572207468616e20302e600082015250565b6000612e2a60208361256c565b9150612e3582612df4565b602082019050919050565b60006020820190508181036000830152612e5981612e1d565b9050919050565b7f4e487b7100000000000000000000000000000000000000000000000000000000600052601160045260246000fd5b6000612e9a82612246565b9150612ea583612246565b9250828202612eb381612246565b91508282048414831517612eca57612ec9612e60565b5b5092915050565b7f496e73756666696369656e74204272656164206f776e65642e00000000000000600082015250565b6000612f0760198361256c565b9150612f1282612ed1565b602082019050919050565b60006020820190508181036000830152612f3681612efa565b9050919050565b6000612f4882612246565b9150612f5383612246565b9250828203905081811115612f6b57612f6a612e60565b5b92915050565b6000604082019050612f8660008301856124f6565b612f9360208301846124f6565b9392505050565b7f416c7265616479206c6973746564206173204e474f0000000000000000000000600082015250565b6000612fd060158361256c565b9150612fdb82612f9a565b602082019050919050565b60006020820190508181036000830152612fff81612fc3565b9050919050565b7f4e487b7100000000000000000000000000000000000000000000000000000000600052602260045260246000fd5b6000600282049050600182168061304d57607f821691505b6020821081036130605761305f613006565b5b50919050565b60008190508160005260206000209050919050565b60006020601f8301049050919050565b600082821b905092915050565b6000600883026130c87fffffffffffffffffffffffffffffffffffffffffffffffffffffffffffffffff8261308b565b6130d2868361308b565b95508019841693508086168417925050509392505050565b6000819050919050565b600061310f61310a61310584612246565b6130ea565b612246565b9050919050565b6000819050919050565b613129836130f4565b61313d61313582613116565b848454613098565b825550505050565b600090565b613152613145565b61315d818484613120565b505050565b5b818110156131815761317660008261314a565b600181019050613163565b5050565b601f8211156131c65761319781613066565b6131a08461307b565b810160208510156131af578190505b6131c36131bb8561307b565b830182613162565b50505b505050565b600082821c905092915050565b60006131e9600019846008026131cb565b1980831691505092915050565b600061320283836131d8565b9150826002028217905092915050565b61321b82612561565b67ffffffffffffffff811115613234576132336122c4565b5b61323e8254613035565b613249828285613185565b600060209050601f83116001811461327c576000841561326a578287015190505b61327485826131f6565b8655506132dc565b601f19841661328a86613066565b60005b828110156132b25784890151825560018201915060208501945060208101905061328d565b868310156132cf57848901516132cb601f8916826131d8565b8355505b6001600288020188555050505b505050505050565b600060808201905081810360008301526132fe81876125a7565b9050818103602083015261331281866125a7565b9050818103604083015261332681856125a7565b9050818103606083015261333a81846125a7565b905095945050505050565b7f4e487b7100000000000000000000000000000000000000000000000000000000600052603260045260246000fd5b600061337f82612246565b91507fffffffffffffffffffffffffffffffffffffffffffffffffffffffffffffffff82036133b1576133b0612e60565b5b600182019050919050565b7f4d75737420646f6e617465206174206c6561737420312042524541442e000000600082015250565b60006133f2601d8361256c565b91506133fd826133bc565b602082019050919050565b60006020820190508181036000830152613421816133e5565b9050919050565b7f4e6f7420656e6f7567682042524541442e000000000000000000000000000000600082015250565b600061345e60118361256c565b915061346982613428565b602082019050919050565b6000602082019050818103600083015261348d81613451565b9050919050565b7f5265717565737420616c72656164792066756c66696c6c65642e000000000000600082015250565b60006134ca601a8361256c565b91506134d582613494565b602082019050919050565b600060208201905081810360008301526134f9816134bd565b9050919050565b600061350b82612246565b915061351683612246565b925082820190508082111561352e5761352d612e60565b5b92915050565b7f496e73756666696369656e742045746865722073656e742e0000000000000000600082015250565b600061356a60188361256c565b915061357582613534565b602082019050919050565b600060208201905081810360008301526135998161355d565b9050919050565b7f4f6e6c79206c6973746564204e474f732063616e20726169736520726571756560008201527f7374732e00000000000000000000000000000000000000000000000000000000602082015250565b60006135fc60248361256c565b9150613607826135a0565b604082019050919050565b6000602082019050818103600083015261362b816135ef565b9050919050565b7f4272656164207265717569726564206d7573742062652067726561746572207460008201527f68616e2030000000000000000000000000000000000000000000000000000000602082015250565b600061368e60258361256c565b915061369982613632565b604082019050919050565b600060208201905081810360008301526136bd81613681565b9050919050565b600060a0820190506136d960008301886124f6565b81810360208301526136eb81876125a7565b905081810360408301526136ff81866125a7565b9050818103606083015261371381856125a7565b905061372260808301846124f6565b969550505050505056fea2646970667358221220b75720ac0bc9741190a3356e538c692524b2fc084ff028bfa69d33d9af476d5564736f6c63430008140033",
  "linkReferences": {},
  "deployedLinkReferences": {}
}