{
  "_format": "hh-sol-artifact-1",
  "contractName": "NGORegistry",
  "sourceName": "contracts/MyContract.sol",
  "abi": [
    {
      "inputs": [],
      "stateMutability": "nonpayable",
      "type": "constructor"
    },
    {
      "anonymous": false,
      "inputs": [
        {
          "indexed": true,
          "internalType": "address",
          "name": "buyer",
          "type": "address"
        },
        {
          "indexed": false,
          "internalType": "uint256",
          "name": "amount",
          "type": "uint256"
        },
        {
          "indexed": false,
          "internalType": "uint256",
          "name": "totalPaid",
          "type": "uint256"
        }
      ],
      "name": "BreadBought",
      "type": "event"
    },
    {
      "anonymous": false,
      "inputs": [
        {
          "indexed": true,
          "internalType": "address",
          "name": "donor",
          "type": "address"
        },
        {
          "indexed": true,
          "internalType": "uint256",
          "name": "requestId",
          "type": "uint256"
        },
        {
          "indexed": false,
          "internalType": "uint256",
          "name": "amount",
          "type": "uint256"
        }
      ],
      "name": "Donated",
      "type": "event"
    },
    {
      "anonymous": false,
      "inputs": [
        {
          "indexed": true,
          "internalType": "address",
          "name": "ngo",
          "type": "address"
        },
        {
          "indexed": false,
          "internalType": "string",
          "name": "name",
          "type": "string"
        },
        {
          "indexed": false,
          "internalType": "string",
          "name": "phone",
          "type": "string"
        },
        {
          "indexed": false,
          "internalType": "string",
          "name": "location",
          "type": "string"
        },
        {
          "indexed": false,
          "internalType": "string",
          "name": "website",
          "type": "string"
        }
      ],
      "name": "NGOListed",
      "type": "event"
    },
    {
      "anonymous": false,
      "inputs": [
        {
          "indexed": false,
          "internalType": "uint256",
          "name": "id",
          "type": "uint256"
        },
        {
          "indexed": true,
          "internalType": "address",
          "name": "ngo",
          "type": "address"
        },
        {
          "indexed": false,
          "internalType": "string",
          "name": "beneficiary",
          "type": "string"
        },
        {
          "indexed": false,
          "internalType": "string",
          "name": "category",
          "type": "string"
        },
        {
          "indexed": false,
          "internalType": "string",
          "name": "description",
          "type": "string"
        },
        {
          "indexed": false,
          "internalType": "uint256",
          "name": "breadRequired",
          "type": "uint256"
        }
      ],
      "name": "RequestRaised",
      "type": "event"
    },
    {
      "inputs": [],
      "name": "BREAD_PRICE_WEI",
      "outputs": [
        {
          "internalType": "uint256",
          "name": "",
          "type": "uint256"
        }
      ],
      "stateMutability": "view",
      "type": "function"
    },
    {
      "inputs": [
        {
          "internalType": "address",
          "name": "",
          "type": "address"
        }
      ],
      "name": "breadBalances",
      "outputs": [
        {
          "internalType": "uint256",
          "name": "",
          "type": "uint256"
        }
      ],
      "stateMutability": "view",
      "type": "function"
    },
    {
      "inputs": [
        {
          "internalType": "uint256",
          "name": "quantity",
          "type": "uint256"
        }
      ],
      "name": "buyBread",
      "outputs": [],
      "stateMutability": "payable",
      "type": "function"
    },
    {
      "inputs": [
        {
          "internalType": "uint256",
          "name": "_requestId",
          "type": "uint256"
        },
        {
          "internalType": "uint256",
          "name": "_amount",
          "type": "uint256"
        }
      ],
      "name": "donateBread",
      "outputs": [],
      "stateMutability": "nonpayable",
      "type": "function"
    },
    {
      "inputs": [],
      "name": "getAllNGOs",
      "outputs": [
        {
          "components": [
            {
              "internalType": "address",
              "name": "ngoAddress",
              "type": "address"
            },
            {
              "internalType": "string",
              "name": "name",
              "type": "string"
            },
            {
              "internalType": "string",
              "name": "description",
              "type": "string"
            },
            {
              "internalType": "string",
              "name": "phone",
              "type": "string"
            },
            {
              "internalType": "string",
              "name": "location",
              "type": "string"
            },
            {
              "internalType": "string",
              "name": "website",
              "type": "string"
            },
            {
              "internalType": "bool",
              "name": "listed",
              "type": "bool"
            }
          ],
          "internalType": "struct NGORegistry.NGO[]",
          "name": "",
          "type": "tuple[]"
        }
      ],
      "stateMutability": "view",
      "type": "function"
    },
    {
      "inputs": [],
      "name": "getAllRequests",
      "outputs": [
        {
          "components": [
            {
              "internalType": "uint256",
              "name": "id",
              "type": "uint256"
            },
            {
              "internalType": "address",
              "name": "ngo",
              "type": "address"
            },
            {
              "internalType": "string",
              "name": "beneficiary",
              "type": "string"
            },
            {
              "internalType": "string",
              "name": "category",
              "type": "string"
            },
            {
              "internalType": "string",
              "name": "description",
              "type": "string"
            },
            {
              "internalType": "uint256",
              "name": "breadRequired",
              "type": "uint256"
            },
            {
              "internalType": "uint256",
              "name": "breadReceived",
              "type": "uint256"
            },
            {
              "internalType": "bool",
              "name": "fulfilled",
              "type": "bool"
            }
          ],
          "internalType": "struct NGORegistry.Request[]",
          "name": "",
          "type": "tuple[]"
        }
      ],
      "stateMutability": "view",
      "type": "function"
    },
    {
      "inputs": [
        {
          "internalType": "uint256",
          "name": "_id",
          "type": "uint256"
        }
      ],
      "name": "getRequestDetails",
      "outputs": [
        {
          "internalType": "address",
          "name": "ngo",
          "type": "address"
        },
        {
          "internalType": "string",
          "name": "beneficiary",
          "type": "string"
        },
        {
          "internalType": "string",
          "name": "category",
          "type": "string"
        },
        {
          "internalType": "string",
          "name": "description",
          "type": "string"
        },
        {
          "internalType": "uint256",
          "name": "breadRequired",
          "type": "uint256"
        },
        {
          "internalType": "uint256",
          "name": "breadReceived",
          "type": "uint256"
        },
        {
          "internalType": "bool",
          "name": "fulfilled",
          "type": "bool"
        }
      ],
      "stateMutability": "view",
      "type": "function"
    },
    {
      "inputs": [
        {
          "internalType": "address",
          "name": "_ngo",
          "type": "address"
        }
      ],
      "name": "getRequestsByNGO",
      "outputs": [
        {
          "internalType": "uint256[]",
          "name": "",
          "type": "uint256[]"
        }
      ],
      "stateMutability": "view",
      "type": "function"
    },
    {
      "inputs": [
        {
          "internalType": "address",
          "name": "_ngo",
          "type": "address"
        }
      ],
      "name": "isRegistered",
      "outputs": [
        {
          "internalType": "bool",
          "name": "",
          "type": "bool"
        }
      ],
      "stateMutability": "view",
      "type": "function"
    },
    {
      "inputs": [
        {
          "internalType": "string",
          "name": "_name",
          "type": "string"
        },
        {
          "internalType": "string",
          "name": "_description",
          "type": "string"
        },
        {
          "internalType": "string",
          "name": "_phone",
          "type": "string"
        },
        {
          "internalType": "string",
          "name": "_location",
          "type": "string"
        },
        {
          "internalType": "string",
          "name": "_website",
          "type": "string"
        }
      ],
      "name": "listAsNGO",
      "outputs": [],
      "stateMutability": "nonpayable",
      "type": "function"
    },
    {
      "inputs": [],
      "name": "nextRequestId",
      "outputs": [
        {
          "internalType": "uint256",
          "name": "",
          "type": "uint256"
        }
      ],
      "stateMutability": "view",
      "type": "function"
    },
    {
      "inputs": [
        {
          "internalType": "uint256",
          "name": "",
          "type": "uint256"
        }
      ],
      "name": "ngoList",
      "outputs": [
        {
          "internalType": "address",
          "name": "",
          "type": "address"
        }
      ],
      "stateMutability": "view",
      "type": "function"
    },
    {
      "inputs": [
        {
          "internalType": "address",
          "name": "",
          "type": "address"
        },
        {
          "internalType": "uint256",
          "name": "",
          "type": "uint256"
        }
      ],
      "name": "ngoToRequests",
      "outputs": [
        {
          "internalType": "uint256",
          "name": "",
          "type": "uint256"
        }
      ],
      "stateMutability": "view",
      "type": "function"
    },
    {
      "inputs": [
        {
          "internalType": "address",
          "name": "",
          "type": "address"
        }
      ],
      "name": "ngos",
      "outputs": [
        {
          "internalType": "address",
          "name": "ngoAddress",
          "type": "address"
        },
        {
          "internalType": "string",
          "name": "name",
          "type": "string"
        },
        {
          "internalType": "string",
          "name": "description",
          "type": "string"
        },
        {
          "internalType": "string",
          "name": "phone",
          "type": "string"
        },
        {
          "internalType": "string",
          "name": "location",
          "type": "string"
        },
        {
          "internalType": "string",
          "name": "website",
          "type": "string"
        },
        {
          "internalType": "bool",
          "name": "listed",
          "type": "bool"
        }
      ],
      "stateMutability": "view",
      "type": "function"
    },
    {
      "inputs": [],
      "name": "owner",
      "outputs": [
        {
          "internalType": "address",
          "name": "",
          "type": "address"
        }
      ],
      "stateMutability": "view",
      "type": "function"
    },
    {
      "inputs": [
        {
          "internalType": "string",
          "name": "_beneficiary",
          "type": "string"
        },
        {
          "internalType": "string",
          "name": "_category",
          "type": "string"
        },
        {
          "internalType": "string",
          "name": "_description",
          "type": "string"
        },
        {
          "internalType": "uint256",
          "name": "_breadRequired",
          "type": "uint256"
        }
      ],
      "name": "raiseRequest",
      "outputs": [],
      "stateMutability": "nonpayable",
      "type": "function"
    },
    {
      "inputs": [
        {
          "internalType": "uint256",
          "name": "",
          "type": "uint256"
        }
      ],
      "name": "requests",
      "outputs": [
        {
          "internalType": "uint256",
          "name": "id",
          "type": "uint256"
        },
        {
          "internalType": "address",
          "name": "ngo",
          "type": "address"
        },
        {
          "internalType": "string",
          "name": "beneficiary",
          "type": "string"
        },
        {
          "internalType": "string",
          "name": "category",
          "type": "string"
        },
        {
          "internalType": "string",
          "name": "description",
          "type": "string"
        },
        {
          "internalType": "uint256",
          "name": "breadRequired",
          "type": "uint256"
        },
        {
          "internalType": "uint256",
          "name": "breadReceived",
          "type": "uint256"
        },
        {
          "internalType": "bool",
          "name": "fulfilled",
          "type": "bool"
        }
      ],
      "stateMutability": "view",
      "type": "function"
    }
  ],
  "bytecode": "0x608060405234801561001057600080fd5b5033600260006101000a81548173ffffffffffffffffffffffffffffffffffffffff021916908373ffffffffffffffffffffffffffffffffffffffff1602179055506134f5806100616000396000f3fe6080604052600436106100fe5760003560e01c8063b0025ea211610095578063df90548311610064578063df90548314610353578063e279261114610390578063e6f7d11e146103bb578063f34d4c63146103fe578063fb1a002a14610441576100fe565b8063b0025ea214610294578063b8c9a795146102d1578063c3c5a547146102ed578063db52d70a1461032a576100fe565b80638da5cb5b116100d15780638da5cb5b146101c6578063967f8982146101f15780639d32bbf31461022e578063a9520a4714610257576100fe565b80635c5e71f3146101035780636a84a9851461012c57806381d12c581461015757806387b5a2dd1461019b575b600080fd5b34801561010f57600080fd5b5061012a6004803603810190610125919061218b565b61046c565b005b34801561013857600080fd5b5061014161071b565b60405161014e91906122ab565b60405180910390f35b34801561016357600080fd5b5061017e600480360381019061017991906122f2565b610721565b6040516101929897969594939291906123fa565b60405180910390f35b3480156101a757600080fd5b506101b061092e565b6040516101bd919061266f565b60405180910390f35b3480156101d257600080fd5b506101db610da8565b6040516101e89190612691565b60405180910390f35b3480156101fd57600080fd5b50610218600480360381019061021391906122f2565b610dce565b6040516102259190612691565b60405180910390f35b34801561023a57600080fd5b50610255600480360381019061025091906126ac565b610e0d565b005b34801561026357600080fd5b5061027e60048036038101906102799190612718565b6110e9565b60405161028b91906122ab565b60405180910390f35b3480156102a057600080fd5b506102bb60048036038101906102b69190612758565b61111a565b6040516102c89190612843565b60405180910390f35b6102eb60048036038101906102e691906122f2565b6111b1565b005b3480156102f957600080fd5b50610314600480360381019061030f9190612758565b611353565b6040516103219190612865565b60405180910390f35b34801561033657600080fd5b50610351600480360381019061034c9190612880565b6113ab565b005b34801561035f57600080fd5b5061037a60048036038101906103759190612758565b61168f565b60405161038791906122ab565b60405180910390f35b34801561039c57600080fd5b506103a56116a7565b6040516103b291906122ab565b60405180910390f35b3480156103c757600080fd5b506103e260048036038101906103dd9190612758565b6116b2565b6040516103f5979695949392919061293b565b60405180910390f35b34801561040a57600080fd5b50610425600480360381019061042091906122f2565b6119c9565b60405161043897969594939291906129cd565b60405180910390f35b34801561044d57600080fd5b50610456611c79565b6040516104639190612bd1565b60405180910390f35b6000803373ffffffffffffffffffffffffffffffffffffffff1673ffffffffffffffffffffffffffffffffffffffff16815260200190815260200160002060060160009054906101000a900460ff16156104fb576040517f08c379a00000000000000000000000000000000000000000000000000000000081526004016104f290612c3f565b60405180910390fd5b6040518060e001604052803373ffffffffffffffffffffffffffffffffffffffff168152602001868152602001858152602001848152602001838152602001828152602001600115158152506000803373ffffffffffffffffffffffffffffffffffffffff1673ffffffffffffffffffffffffffffffffffffffff16815260200190815260200160002060008201518160000160006101000a81548173ffffffffffffffffffffffffffffffffffffffff021916908373ffffffffffffffffffffffffffffffffffffffff16021790555060208201518160010190816105e19190612e6b565b5060408201518160020190816105f79190612e6b565b50606082015181600301908161060d9190612e6b565b5060808201518160040190816106239190612e6b565b5060a08201518160050190816106399190612e6b565b5060c08201518160060160006101000a81548160ff0219169083151502179055509050506001339080600181540180825580915050600190039060005260206000200160009091909190916101000a81548173ffffffffffffffffffffffffffffffffffffffff021916908373ffffffffffffffffffffffffffffffffffffffff1602179055503373ffffffffffffffffffffffffffffffffffffffff167fee012830d22fddddd9a70b7c5b6055f093643e7a0e771a8f9ce8f8ab6f7048028685858560405161070c9493929190612f3d565b60405180910390a25050505050565b60045481565b60056020528060005260406000206000915090508060000154908060010160009054906101000a900473ffffffffffffffffffffffffffffffffffffffff169080600201805461077090612c8e565b80601f016020809104026020016040519081016040528092919081815260200182805461079c90612c8e565b80156107e95780601f106107be576101008083540402835291602001916107e9565b820191906000526020600020905b8154815290600101906020018083116107cc57829003601f168201915b5050505050908060030180546107fe90612c8e565b80601f016020809104026020016040519081016040528092919081815260200182805461082a90612c8e565b80156108775780601f1061084c57610100808354040283529160200191610877565b820191906000526020600020905b81548152906001019060200180831161085a57829003601f168201915b50505050509080600401805461088c90612c8e565b80601f01602080910402602001604051908101604052809291908181526020018280546108b890612c8e565b80156109055780601f106108da57610100808354040283529160200191610905565b820191906000526020600020905b8154815290600101906020018083116108e857829003601f168201915b5050505050908060050154908060060154908060070160009054906101000a900460ff16905088565b6060600060018054905067ffffffffffffffff81111561095157610950612060565b5b60405190808252806020026020018201604052801561098a57816020015b610977611f7f565b81526020019060019003908161096f5790505b50905060005b600180549050811015610da057600080600183815481106109b4576109b3612f9e565b5b9060005260206000200160009054906101000a900473ffffffffffffffffffffffffffffffffffffffff1673ffffffffffffffffffffffffffffffffffffffff1673ffffffffffffffffffffffffffffffffffffffff1681526020019081526020016000206040518060e00160405290816000820160009054906101000a900473ffffffffffffffffffffffffffffffffffffffff1673ffffffffffffffffffffffffffffffffffffffff1673ffffffffffffffffffffffffffffffffffffffff168152602001600182018054610a8a90612c8e565b80601f0160208091040260200160405190810160405280929190818152602001828054610ab690612c8e565b8015610b035780601f10610ad857610100808354040283529160200191610b03565b820191906000526020600020905b815481529060010190602001808311610ae657829003601f168201915b50505050508152602001600282018054610b1c90612c8e565b80601f0160208091040260200160405190810160405280929190818152602001828054610b4890612c8e565b8015610b955780601f10610b6a57610100808354040283529160200191610b95565b820191906000526020600020905b815481529060010190602001808311610b7857829003601f168201915b50505050508152602001600382018054610bae90612c8e565b80601f0160208091040260200160405190810160405280929190818152602001828054610bda90612c8e565b8015610c275780601f10610bfc57610100808354040283529160200191610c27565b820191906000526020600020905b815481529060010190602001808311610c0a57829003601f168201915b50505050508152602001600482018054610c4090612c8e565b80601f0160208091040260200160405190810160405280929190818152602001828054610c6c90612c8e565b8015610cb95780601f10610c8e57610100808354040283529160200191610cb9565b820191906000526020600020905b815481529060010190602001808311610c9c57829003601f168201915b50505050508152602001600582018054610cd290612c8e565b80601f0160208091040260200160405190810160405280929190818152602001828054610cfe90612c8e565b8015610d4b5780601f10610d2057610100808354040283529160200191610d4b565b820191906000526020600020905b815481529060010190602001808311610d2e57829003601f168201915b505050505081526020016006820160009054906101000a900460ff161515151581525050828281518110610d8257610d81612f9e565b5b60200260200101819052508080610d9890612ffc565b915050610990565b508091505090565b600260009054906101000a900473ffffffffffffffffffffffffffffffffffffffff1681565b60018181548110610dde57600080fd5b906000526020600020016000915054906101000a900473ffffffffffffffffffffffffffffffffffffffff1681565b60008111610e50576040517f08c379a0000000000000000000000000000000000000000000000000000000008152600401610e4790613090565b60405180910390fd5b80600360003373ffffffffffffffffffffffffffffffffffffffff1673ffffffffffffffffffffffffffffffffffffffff168152602001908152602001600020541015610ed2576040517f08c379a0000000000000000000000000000000000000000000000000000000008152600401610ec9906130fc565b60405180910390fd5b60006005600084815260200190815260200160002090508060070160009054906101000a900460ff1615610f3b576040517f08c379a0000000000000000000000000000000000000000000000000000000008152600401610f3290613168565b60405180910390fd5b60008290508160050154838360060154610f559190613188565b10610f8e5781600601548260050154610f6e91906131bc565b905060018260070160006101000a81548160ff0219169083151502179055505b80600360003373ffffffffffffffffffffffffffffffffffffffff1673ffffffffffffffffffffffffffffffffffffffff1681526020019081526020016000206000828254610fdd91906131bc565b9250508190555080826006016000828254610ff89190613188565b9250508190555080600360008460010160009054906101000a900473ffffffffffffffffffffffffffffffffffffffff1673ffffffffffffffffffffffffffffffffffffffff1673ffffffffffffffffffffffffffffffffffffffff16815260200190815260200160002060008282546110729190613188565b925050819055508082600501600082825461108d91906131bc565b92505081905550833373ffffffffffffffffffffffffffffffffffffffff167f4928895ba6723e8e27b15f32e4c3054a1b6c7f8c03f133558d6fa42b3928d14c836040516110db91906122ab565b60405180910390a350505050565b6006602052816000526040600020818154811061110557600080fd5b90600052602060002001600091509150505481565b6060600660008373ffffffffffffffffffffffffffffffffffffffff1673ffffffffffffffffffffffffffffffffffffffff1681526020019081526020016000208054806020026020016040519081016040528092919081815260200182805480156111a557602002820191906000526020600020905b815481526020019060010190808311611191575b50505050509050919050565b600081116111f4576040517f08c379a00000000000000000000000000000000000000000000000000000000081526004016111eb9061323c565b60405180910390fd5b6000816601eb208c2dc000611209919061325c565b90508034101561124e576040517f08c379a0000000000000000000000000000000000000000000000000000000008152600401611245906132ea565b60405180910390fd5b81600360003373ffffffffffffffffffffffffffffffffffffffff1673ffffffffffffffffffffffffffffffffffffffff168152602001908152602001600020600082825461129d9190613188565b925050819055503373ffffffffffffffffffffffffffffffffffffffff167f48b926afa4e6464171ebb3e60b3f8a121e97db2d9bd715ada927c7e25a16037683346040516112ec92919061330a565b60405180910390a28034111561134f573373ffffffffffffffffffffffffffffffffffffffff166108fc823461132291906131bc565b9081150290604051600060405180830381858888f1935050505015801561134d573d6000803e3d6000fd5b505b5050565b60008060008373ffffffffffffffffffffffffffffffffffffffff1673ffffffffffffffffffffffffffffffffffffffff16815260200190815260200160002060060160009054906101000a900460ff169050919050565b6000803373ffffffffffffffffffffffffffffffffffffffff1673ffffffffffffffffffffffffffffffffffffffff16815260200190815260200160002060060160009054906101000a900460ff16611439576040517f08c379a0000000000000000000000000000000000000000000000000000000008152600401611430906133a5565b60405180910390fd5b6000811161147c576040517f08c379a000000000000000000000000000000000000000000000000000000000815260040161147390613437565b60405180910390fd5b60405180610100016040528060045481526020013373ffffffffffffffffffffffffffffffffffffffff16815260200185815260200184815260200183815260200182815260200160008152602001600015158152506005600060045481526020019081526020016000206000820151816000015560208201518160010160006101000a81548173ffffffffffffffffffffffffffffffffffffffff021916908373ffffffffffffffffffffffffffffffffffffffff160217905550604082015181600201908161154d9190612e6b565b5060608201518160030190816115639190612e6b565b5060808201518160040190816115799190612e6b565b5060a0820151816005015560c0820151816006015560e08201518160070160006101000a81548160ff021916908315150217905550905050600660003373ffffffffffffffffffffffffffffffffffffffff1673ffffffffffffffffffffffffffffffffffffffff16815260200190815260200160002060045490806001815401808255809150506001900390600052602060002001600090919091909150553373ffffffffffffffffffffffffffffffffffffffff167ff3ff0e4ee227c9c49e471e239d267f785dfc44d3bc508fe845796c45664aac5660045486868686604051611669959493929190613457565b60405180910390a26004600081548092919061168490612ffc565b919050555050505050565b60036020528060005260406000206000915090505481565b6601eb208c2dc00081565b60006020528060005260406000206000915090508060000160009054906101000a900473ffffffffffffffffffffffffffffffffffffffff16908060010180546116fb90612c8e565b80601f016020809104026020016040519081016040528092919081815260200182805461172790612c8e565b80156117745780601f1061174957610100808354040283529160200191611774565b820191906000526020600020905b81548152906001019060200180831161175757829003601f168201915b50505050509080600201805461178990612c8e565b80601f01602080910402602001604051908101604052809291908181526020018280546117b590612c8e565b80156118025780601f106117d757610100808354040283529160200191611802565b820191906000526020600020905b8154815290600101906020018083116117e557829003601f168201915b50505050509080600301805461181790612c8e565b80601f016020809104026020016040519081016040528092919081815260200182805461184390612c8e565b80156118905780601f1061186557610100808354040283529160200191611890565b820191906000526020600020905b81548152906001019060200180831161187357829003601f168201915b5050505050908060040180546118a590612c8e565b80601f01602080910402602001604051908101604052809291908181526020018280546118d190612c8e565b801561191e5780601f106118f35761010080835404028352916020019161191e565b820191906000526020600020905b81548152906001019060200180831161190157829003601f168201915b50505050509080600501805461193390612c8e565b80601f016020809104026020016040519081016040528092919081815260200182805461195f90612c8e565b80156119ac5780601f10611981576101008083540402835291602001916119ac565b820191906000526020600020905b81548152906001019060200180831161198f57829003601f168201915b5050505050908060060160009054906101000a900460ff16905087565b60006060806060600080600080600560008a815260200190815260200160002060405180610100016040529081600082015481526020016001820160009054906101000a900473ffffffffffffffffffffffffffffffffffffffff1673ffffffffffffffffffffffffffffffffffffffff1673ffffffffffffffffffffffffffffffffffffffff168152602001600282018054611a6590612c8e565b80601f0160208091040260200160405190810160405280929190818152602001828054611a9190612c8e565b8015611ade5780601f10611ab357610100808354040283529160200191611ade565b820191906000526020600020905b815481529060010190602001808311611ac157829003601f168201915b50505050508152602001600382018054611af790612c8e565b80601f0160208091040260200160405190810160405280929190818152602001828054611b2390612c8e565b8015611b705780601f10611b4557610100808354040283529160200191611b70565b820191906000526020600020905b815481529060010190602001808311611b5357829003601f168201915b50505050508152602001600482018054611b8990612c8e565b80601f0160208091040260200160405190810160405280929190818152602001828054611bb590612c8e565b8015611c025780601f10611bd757610100808354040283529160200191611c02565b820191906000526020600020905b815481529060010190602001808311611be557829003601f168201915b5050505050815260200160058201548152602001600682015481526020016007820160009054906101000a900460ff161515151581525050905080602001518160400151826060015183608001518460a001518560c001518660e00151975097509750975097509750975050919395979092949650565b6060600060045467ffffffffffffffff811115611c9957611c98612060565b5b604051908082528060200260200182016040528015611cd257816020015b611cbf611fd4565b815260200190600190039081611cb75790505b50905060005b600454811015611f77576005600082815260200190815260200160002060405180610100016040529081600082015481526020016001820160009054906101000a900473ffffffffffffffffffffffffffffffffffffffff1673ffffffffffffffffffffffffffffffffffffffff1673ffffffffffffffffffffffffffffffffffffffff168152602001600282018054611d7190612c8e565b80601f0160208091040260200160405190810160405280929190818152602001828054611d9d90612c8e565b8015611dea5780601f10611dbf57610100808354040283529160200191611dea565b820191906000526020600020905b815481529060010190602001808311611dcd57829003601f168201915b50505050508152602001600382018054611e0390612c8e565b80601f0160208091040260200160405190810160405280929190818152602001828054611e2f90612c8e565b8015611e7c5780601f10611e5157610100808354040283529160200191611e7c565b820191906000526020600020905b815481529060010190602001808311611e5f57829003601f168201915b50505050508152602001600482018054611e9590612c8e565b80601f0160208091040260200160405190810160405280929190818152602001828054611ec190612c8e565b8015611f0e5780601f10611ee357610100808354040283529160200191611f0e565b820191906000526020600020905b815481529060010190602001808311611ef157829003601f168201915b5050505050815260200160058201548152602001600682015481526020016007820160009054906101000a900460ff161515151581525050828281518110611f5957611f58612f9e565b5b60200260200101819052508080611f6f90612ffc565b915050611cd8565b508091505090565b6040518060e00160405280600073ffffffffffffffffffffffffffffffffffffffff16815260200160608152602001606081526020016060815260200160608152602001606081526020016000151581525090565b60405180610100016040528060008152602001600073ffffffffffffffffffffffffffffffffffffffff16815260200160608152602001606081526020016060815260200160008152602001600081526020016000151581525090565b6000604051905090565b600080fd5b600080fd5b600080fd5b600080fd5b6000601f19601f8301169050919050565b7f4e487b7100000000000000000000000000000000000000000000000000000000600052604160045260246000fd5b6120988261204f565b810181811067ffffffffffffffff821117156120b7576120b6612060565b5b80604052505050565b60006120ca612031565b90506120d6828261208f565b919050565b600067ffffffffffffffff8211156120f6576120f5612060565b5b6120ff8261204f565b9050602081019050919050565b82818337600083830152505050565b600061212e612129846120db565b6120c0565b90508281526020810184848401111561214a5761214961204a565b5b61215584828561210c565b509392505050565b600082601f83011261217257612171612045565b5b813561218284826020860161211b565b91505092915050565b600080600080600060a086880312156121a7576121a661203b565b5b600086013567ffffffffffffffff8111156121c5576121c4612040565b5b6121d18882890161215d565b955050602086013567ffffffffffffffff8111156121f2576121f1612040565b5b6121fe8882890161215d565b945050604086013567ffffffffffffffff81111561221f5761221e612040565b5b61222b8882890161215d565b935050606086013567ffffffffffffffff81111561224c5761224b612040565b5b6122588882890161215d565b925050608086013567ffffffffffffffff81111561227957612278612040565b5b6122858882890161215d565b9150509295509295909350565b6000819050919050565b6122a581612292565b82525050565b60006020820190506122c0600083018461229c565b92915050565b6122cf81612292565b81146122da57600080fd5b50565b6000813590506122ec816122c6565b92915050565b6000602082840312156123085761230761203b565b5b6000612316848285016122dd565b91505092915050565b600073ffffffffffffffffffffffffffffffffffffffff82169050919050565b600061234a8261231f565b9050919050565b61235a8161233f565b82525050565b600081519050919050565b600082825260208201905092915050565b60005b8381101561239a57808201518184015260208101905061237f565b60008484015250505050565b60006123b182612360565b6123bb818561236b565b93506123cb81856020860161237c565b6123d48161204f565b840191505092915050565b60008115159050919050565b6123f4816123df565b82525050565b600061010082019050612410600083018b61229c565b61241d602083018a612351565b818103604083015261242f81896123a6565b9050818103606083015261244381886123a6565b9050818103608083015261245781876123a6565b905061246660a083018661229c565b61247360c083018561229c565b61248060e08301846123eb565b9998505050505050505050565b600081519050919050565b600082825260208201905092915050565b6000819050602082019050919050565b6124c28161233f565b82525050565b600082825260208201905092915050565b60006124e482612360565b6124ee81856124c8565b93506124fe81856020860161237c565b6125078161204f565b840191505092915050565b61251b816123df565b82525050565b600060e08301600083015161253960008601826124b9565b506020830151848203602086015261255182826124d9565b9150506040830151848203604086015261256b82826124d9565b9150506060830151848203606086015261258582826124d9565b9150506080830151848203608086015261259f82826124d9565b91505060a083015184820360a08601526125b982826124d9565b91505060c08301516125ce60c0860182612512565b508091505092915050565b60006125e58383612521565b905092915050565b6000602082019050919050565b60006126058261248d565b61260f8185612498565b935083602082028501612621856124a9565b8060005b8581101561265d578484038952815161263e85826125d9565b9450612649836125ed565b925060208a01995050600181019050612625565b50829750879550505050505092915050565b6000602082019050818103600083015261268981846125fa565b905092915050565b60006020820190506126a66000830184612351565b92915050565b600080604083850312156126c3576126c261203b565b5b60006126d1858286016122dd565b92505060206126e2858286016122dd565b9150509250929050565b6126f58161233f565b811461270057600080fd5b50565b600081359050612712816126ec565b92915050565b6000806040838503121561272f5761272e61203b565b5b600061273d85828601612703565b925050602061274e858286016122dd565b9150509250929050565b60006020828403121561276e5761276d61203b565b5b600061277c84828501612703565b91505092915050565b600081519050919050565b600082825260208201905092915050565b6000819050602082019050919050565b6127ba81612292565b82525050565b60006127cc83836127b1565b60208301905092915050565b6000602082019050919050565b60006127f082612785565b6127fa8185612790565b9350612805836127a1565b8060005b8381101561283657815161281d88826127c0565b9750612828836127d8565b925050600181019050612809565b5085935050505092915050565b6000602082019050818103600083015261285d81846127e5565b905092915050565b600060208201905061287a60008301846123eb565b92915050565b6000806000806080858703121561289a5761289961203b565b5b600085013567ffffffffffffffff8111156128b8576128b7612040565b5b6128c48782880161215d565b945050602085013567ffffffffffffffff8111156128e5576128e4612040565b5b6128f18782880161215d565b935050604085013567ffffffffffffffff81111561291257612911612040565b5b61291e8782880161215d565b925050606061292f878288016122dd565b91505092959194509250565b600060e082019050612950600083018a612351565b818103602083015261296281896123a6565b9050818103604083015261297681886123a6565b9050818103606083015261298a81876123a6565b9050818103608083015261299e81866123a6565b905081810360a08301526129b281856123a6565b90506129c160c08301846123eb565b98975050505050505050565b600060e0820190506129e2600083018a612351565b81810360208301526129f481896123a6565b90508181036040830152612a0881886123a6565b90508181036060830152612a1c81876123a6565b9050612a2b608083018661229c565b612a3860a083018561229c565b612a4560c08301846123eb565b98975050505050505050565b600081519050919050565b600082825260208201905092915050565b6000819050602082019050919050565b600061010083016000830151612a9660008601826127b1565b506020830151612aa960208601826124b9565b5060408301518482036040860152612ac182826124d9565b91505060608301518482036060860152612adb82826124d9565b91505060808301518482036080860152612af582826124d9565b91505060a0830151612b0a60a08601826127b1565b5060c0830151612b1d60c08601826127b1565b5060e0830151612b3060e0860182612512565b508091505092915050565b6000612b478383612a7d565b905092915050565b6000602082019050919050565b6000612b6782612a51565b612b718185612a5c565b935083602082028501612b8385612a6d565b8060005b85811015612bbf5784840389528151612ba08582612b3b565b9450612bab83612b4f565b925060208a01995050600181019050612b87565b50829750879550505050505092915050565b60006020820190508181036000830152612beb8184612b5c565b905092915050565b7f416c7265616479206c6973746564206173204e474f0000000000000000000000600082015250565b6000612c2960158361236b565b9150612c3482612bf3565b602082019050919050565b60006020820190508181036000830152612c5881612c1c565b9050919050565b7f4e487b7100000000000000000000000000000000000000000000000000000000600052602260045260246000fd5b60006002820490506001821680612ca657607f821691505b602082108103612cb957612cb8612c5f565b5b50919050565b60008190508160005260206000209050919050565b60006020601f8301049050919050565b600082821b905092915050565b600060088302612d217fffffffffffffffffffffffffffffffffffffffffffffffffffffffffffffffff82612ce4565b612d2b8683612ce4565b95508019841693508086168417925050509392505050565b6000819050919050565b6000612d68612d63612d5e84612292565b612d43565b612292565b9050919050565b6000819050919050565b612d8283612d4d565b612d96612d8e82612d6f565b848454612cf1565b825550505050565b600090565b612dab612d9e565b612db6818484612d79565b505050565b5b81811015612dda57612dcf600082612da3565b600181019050612dbc565b5050565b601f821115612e1f57612df081612cbf565b612df984612cd4565b81016020851015612e08578190505b612e1c612e1485612cd4565b830182612dbb565b50505b505050565b600082821c905092915050565b6000612e4260001984600802612e24565b1980831691505092915050565b6000612e5b8383612e31565b9150826002028217905092915050565b612e7482612360565b67ffffffffffffffff811115612e8d57612e8c612060565b5b612e978254612c8e565b612ea2828285612dde565b600060209050601f831160018114612ed55760008415612ec3578287015190505b612ecd8582612e4f565b865550612f35565b601f198416612ee386612cbf565b60005b82811015612f0b57848901518255600182019150602085019450602081019050612ee6565b86831015612f285784890151612f24601f891682612e31565b8355505b6001600288020188555050505b505050505050565b60006080820190508181036000830152612f5781876123a6565b90508181036020830152612f6b81866123a6565b90508181036040830152612f7f81856123a6565b90508181036060830152612f9381846123a6565b905095945050505050565b7f4e487b7100000000000000000000000000000000000000000000000000000000600052603260045260246000fd5b7f4e487b7100000000000000000000000000000000000000000000000000000000600052601160045260246000fd5b600061300782612292565b91507fffffffffffffffffffffffffffffffffffffffffffffffffffffffffffffffff820361303957613038612fcd565b5b600182019050919050565b7f4d75737420646f6e617465206174206c6561737420312042524541442e000000600082015250565b600061307a601d8361236b565b915061308582613044565b602082019050919050565b600060208201905081810360008301526130a98161306d565b9050919050565b7f4e6f7420656e6f7567682042524541442e000000000000000000000000000000600082015250565b60006130e660118361236b565b91506130f1826130b0565b602082019050919050565b60006020820190508181036000830152613115816130d9565b9050919050565b7f5265717565737420616c72656164792066756c66696c6c65642e000000000000600082015250565b6000613152601a8361236b565b915061315d8261311c565b602082019050919050565b6000602082019050818103600083015261318181613145565b9050919050565b600061319382612292565b915061319e83612292565b92508282019050808211156131b6576131b5612fcd565b5b92915050565b60006131c782612292565b91506131d283612292565b92508282039050818111156131ea576131e9612fcd565b5b92915050565b7f5175616e74697479206d7573742062652067726561746572207468616e20302e600082015250565b600061322660208361236b565b9150613231826131f0565b602082019050919050565b6000602082019050818103600083015261325581613219565b9050919050565b600061326782612292565b915061327283612292565b925082820261328081612292565b9150828204841483151761329757613296612fcd565b5b5092915050565b7f496e73756666696369656e742045746865722073656e742e0000000000000000600082015250565b60006132d460188361236b565b91506132df8261329e565b602082019050919050565b60006020820190508181036000830152613303816132c7565b9050919050565b600060408201905061331f600083018561229c565b61332c602083018461229c565b9392505050565b7f4f6e6c79206c6973746564204e474f732063616e20726169736520726571756560008201527f7374732e00000000000000000000000000000000000000000000000000000000602082015250565b600061338f60248361236b565b915061339a82613333565b604082019050919050565b600060208201905081810360008301526133be81613382565b9050919050565b7f4272656164207265717569726564206d7573742062652067726561746572207460008201527f68616e2030000000000000000000000000000000000000000000000000000000602082015250565b600061342160258361236b565b915061342c826133c5565b604082019050919050565b6000602082019050818103600083015261345081613414565b9050919050565b600060a08201905061346c600083018861229c565b818103602083015261347e81876123a6565b9050818103604083015261349281866123a6565b905081810360608301526134a681856123a6565b90506134b5608083018461229c565b969550505050505056fea2646970667358221220b77b9b629e8c289ebd1f90a17ad093277d9123979b82259cbffdbee76e0f93e964736f6c63430008140033",
  "linkReferences": {},
  "deployedLinkReferences": {}
}